:020000040800F2
:10000000D00E00203578000875010008770100083F
:100010007B0100087F010008830100080000000048
:100020000000000000000000000000008701000840
:1000300089010008000000008B0100088D01000804
:100040004F7800084F7800084F7800084F78000874
:100050004F7800084F7800084F2300087D220008E1
:100060004F7800084F780008252400084F780008D2
:100070004F7800084F7800084F7800084F78000844
:100080004F7800084F7800084F7800084F78000834
:100090004F7800084F7800084F7800084F78000824
:1000A0004F7800084F7800084F7800084F78000814
:1000B000D91400084F7800084F7800084F780008DE
:1000C0004F7800084F7800084F7800084F780008F4
:1000D0004F7800086F500008294C0008DF470008DF
:1000E0004F7800084F7800084F7800084F780008D4
:1000F0004F7800084F7800084F7800084F780008C4
:100100004F7800084F780008BB0600084F780008B9
:1001100095430008473F00084F7800084F780008D3
:100120004F7800084F7800084F7800084F78000893
:10013000DFF80CD007F042FF0048004745010008F7
:10014000D00E002001F004FA01E005F0DAF9FCE736
:1001500070B504460D46E1B2054807F0A3FA00BFAA
:100160000348008800F080000028F9D0204670BDC8
:1001700000480040704700BFFEE700BFFEE700BF39
:10018000FEE700BFFEE7704770477047704700000A
:100190000CB50020019000906C48006840F480305D
:1001A0006A49086000BF6948006800F400300090A8
:1001B0000198401C0190009818B90198B0F5A06F03
:1001C000F1D16248006800F4003010B101200090C5
:1001D00001E0002000900098012843D15C480068AD
:1001E00040F010005A4908600846006820F00300FB
:1001F00008600846006840F0020008605348406804
:10020000524948600846406848600846406840F4E3
:10021000806048600846406820F47C1048600846CA
:10022000406840F4E81048600846006840F080707C
:10023000086000BF4548006800F000700028F9D051
:100240004248406820F00300404948600846406842
:1002500040F00200486000BF3C48406800F00C00DD
:100260000828F9D10CBD10B5FFF792FF10BD10B5ED
:100270003648006840F0010034490860084640688C
:10028000344908403149486008460068324908400E
:100290002E4908600846006820F48020086008465F
:1002A000406820F4FE0048604FF41F008860FFF7AC
:1002B000DAFF4FF000602949086010BD10B5002139
:1002C00000200022214B5B6803F00C0121B10429BE
:1002D00006D0082928D107E0214B224C236027E0D3
:1002E0001F4B204C236023E0184B5B6803F4701015
:1002F000164B5B6803F48032022303EB904022B973
:10030000194B4343174C23600DE0104B5B6803F41B
:10031000003323B1144B4343124C236003E0104BD2
:100320004343104C236003E00D4B0E4C236000BF91
:1003300000BF064B5B68C3F303130C4CE15C094B35
:100340001B68CB40074C236010BD0000001002402A
:10035000002002400000FFF8FFFFF6FE08ED00E07D
:1003600000127A000000002000093D000400002077
:100370001748806940F010001549886115484068A9
:1003800020F47040134948600846406840F44050EB
:1003900048600846C068C86070472DE9F0410746CC
:1003A0000C46154600260EE001200B490860384631
:1003B00001F037F900200949C1F8AC01204601F0ED
:1003C00030F9701CC6B2AE42EEDBBDE8F081000031
:1003D0000010024000100140AC0122420000224205
:1003E00008B50121202006F0AFF80121084606F0EB
:1003F000ABF8BD20ADF8000010208DF803000320FD
:100400008DF802006946764805F0C2FD082174485F
:1004100005F06BFE08BD10B57248006880B97248DF
:100420000078002877D1032001F0FBF86D480068C0
:10043000002870D101206C4908706C4908706AE08E
:1004400068480C38006888B967480078002862D18D
:10045000032001F0E6F863480C38006800285AD100
:100460000120614908706249087054E05D4808380D
:10047000006888B95C48007800284CD1032001F05E
:10048000D0F8584808380068002844D1012056495F
:100490000870584908703EE052481438006878B92E
:1004A00051480078F8B9032001F0BBF84D481438E2
:1004B0000068C0B901204C4908704F4908702AE013
:1004C00048481038006878B94748007858B9032080
:1004D00001F0A7F843481038006820B901204249CC
:1004E00008704649087016E03E481C38006878B924
:1004F0003D48007878B9032001F093F839481C385A
:10050000006840B90120384908703D49087002E090
:1005100000203549087010BD10B5FFF77CFF334847
:10052000007801280AD1002030490870012102F02A
:1005300009FB0122C8210846FFF72FFF2C4800784D
:1005400001280BD100202A4908700021084602F03A
:10055000F9FA0122C8210846FFF71FFF2548007855
:1005600001280BD10020234908700121022002F04C
:10057000E9FA01226421C820FFF70FFF1E48007826
:1005800001280BD100201C4908700021022002F034
:10059000D9FA01226421C820FFF7FFFE174800782E
:1005A00001280BD10020154908700121084602F0EE
:1005B000C9FA012232210846FFF7EFFE1048007801
:1005C00001280BD100200E4908700021012002F003
:1005D000B9FA012232210846FFF7DFFE10BD000004
:1005E000001401401C81224214000020150000204C
:1005F000160000201700002018000020190000201D
:100600001A0000207FB505460C460121082005F0A0
:10061000A8FFADF80850ADF804400020ADF80A007E
:10062000ADF8060001A9FE4806F0C6F80122114601
:10063000FB4806F038FC32208DF8000000208DF8D1
:10064000010003208DF8020001208DF803006846A8
:1006500005F047FB0121F24806F00AFC7FBD7FB59B
:1006600005460C460121084605F07BFFADF8085011
:10067000ADF804400020ADF80A00ADF8060001A96D
:100680004FF0804006F098F801221146900706F0DE
:100690000AFC1C208DF8000001208DF801000320C9
:1006A0008DF8020001208DF80300684605F019FB63
:1006B0000121880706F0DCFB7FBD00B589B0012170
:1006C000D74806F09EFE00287ED00121D44806F0CF
:1006D000A9FED448007800B3D3480078D1490978FE
:1006E000884207D0CF480078401ED04908700020CB
:1006F000CF490880CB480078CB490870CB480078B8
:1007000058B1CB480088401CC94908800846008879
:10071000C82803DA0120C749086010E0C4480088EF
:10072000B0F5FA7F03DA0020C249086007E0002034
:10073000BF490880BD480078401EBC4908700120B0
:10074000BD490870BD48007802287CD1BB4840698B
:10075000401CBA494861084690F87200012845D10A
:100760000846C06F07900846C0680690079907F0D2
:100770004BFB33D2B1484068B049886108464069B4
:10078000486308464069069007F0D1FA0790AB48E5
:10079000806F01460690079807F0C8F8A749C8601F
:1007A00008464069049007F0C2FA0590A348C06863
:1007B00001460490059807F0B9F84FF08041069083
:1007C00007F0E6F89E4900E0F1E3079007F056F8DD
:1007D0009A49886008468068486585E1974890F89E
:1007E0007200401C954981F872007DE1934890F8B1
:1007F0007200022874D19148C0680021079007F068
:100800000DFB64D28D484168C16141698163808A72
:100810008A49898E401A8949A1F870000846B0F8C3
:100820007000059007F083FA06908448806F0146B7
:100830000590069807F07AF807908048C06F014647
:100840000690079800E069E107F06DF87B49C86001
:100850000846B0F87000029007F069FA04907748F3
:10086000B0F87000019007F062FA02907348806F50
:1008700001460190029807F059F80390049907F097
:1008800055F84FF08041059007F082F807906B48CB
:10089000B0F87000039007F04AFA04906748C06F00
:1008A00001460390049807F041F805906348406DB5
:1008B00001460490059806F0E1FF0690079907F0BD
:1008C0002FF85E4988600846816881650CE15B48C5
:1008D00090F87200401C594981F8720004E1FFE76A
:1008E000564890F8720003281FD154480169C06926
:1008F000081A5249496888420FD950484168016234
:100900004169C163B0F87400079007F010FA4B49D1
:10091000886008468168C165E6E0484890F8720042
:10092000401C464981F87200DEE0444890F87200AD
:1009300004284DD14148C06F07904048C0680690D8
:10094000079907F061FA3BD23C484168416241692E
:100950000164818A808F081A3849A1F8700008461E
:10096000B0F87000069007F0E2F907903348806F06
:1009700001460690079806F0D9FF3049C86008463E
:10098000B0F87000049007F0D2F905902B48C068C9
:1009900001460490059806F0C9FF4FF0804106908B
:1009A00006F0F6FF07902548C06D014606900798AF
:1009B00006F0B9FF2149886008468168016693E026
:1009C0001E4890F87200401C1C4981F872008BE0B0
:1009D0001A4890F87200052879D11848806818499B
:1009E000079007F01BFA74D214484168816241698C
:1009F0004164818AB0F84000081A1049A1F87000DB
:100A00000846B0F87000059007F091F906900B4881
:100A1000806F01460590069806F088FF079011E068
:100A2000000C00401E0000201F0000202A000020B3
:100A300028000020880122422C000020E000002035
:100A400000004842F948C06F01460690079806F03A
:100A50006AFFF649C8600846B0F87000019007F0D8
:100A600066F90390F148B0F87000009007F05FF964
:100A70000190EE48806F01460090019806F056FF05
:100A80000290039906F052FF4FF08041049006F067
:100A90007FFF0690E548B0F87000039007F047F933
:100AA0000490E248C06F01460390049806F03EFFB0
:100AB0000590069906F034FF0790DC48006E014669
:100AC0000690079806F02FFFD84988600CE008E0F0
:100AD000FFE7D64890F87200401CD44981F87200B4
:100AE00002E0D348D1498860D04880680146079029
:100AF000172000F032FF08900898B0F57A7F51D3A4
:100B00004FF2B561089888424CD20121880706F05F
:100B1000AFF91721089800F03CFF43E0C348007884
:100B2000012823D1C348807D322148433230BF4958
:100B3000A1F87400BF48008B00EB800040000A3031
:100B400008610846B0F87400069007F0F0F8014616
:100B50000790172000F001FF08901721089800F077
:100B600018FF0121880706F083F91BE0AF480078E1
:100B7000032817D13220AD49A1F874000846B0F817
:100B80007400069007F0D3F801460790172000F094
:100B9000E4FE08901721089800F0FBFE0121880769
:100BA00006F066F9A448007802287DD1A248406981
:100BB000401CA1494861084690F87200012843D1C1
:100BC0000846C06F07900846C0680690079907F06E
:100BD0001BF931D2984840689749886108464069B6
:100BE000486308464069069007F0A1F807909248CC
:100BF000806F01460690079806F098FE8E49C860FF
:100C000008464069049007F092F805908A48C06849
:100C100001460490059806F089FE4FF08041069049
:100C200006F0B6FE8249079006F028FE82498860E9
:100C300008468068486578E17F4890F87200401C5B
:100C40007D4981F8720070E17B4890F872000228BB
:100C500074D17948C0680021079007F0DFF864D2AA
:100C600075484168C16141698163808A7249898E92
:100C7000401A81B27048A0F87010B0F8700005906A
:100C800007F055F806906C48806F0146059006986D
:100C900006F04CFE07906848C06F01460690079822
:100CA00006F041FE644900E059E1C8600846B0F82A
:100CB0007000029007F03BF804905F48B0F87000B5
:100CC000019007F034F802905B48806F0146019074
:100CD000029806F02BFE0390049906F027FE4FF0D1
:100CE0008041059006F054FE07905348B0F870001C
:100CF000039007F01CF804904F48C06F0146039022
:100D0000049806F013FE05904B48406D0146049090
:100D1000059806F0B3FD0690079906F001FE4649D6
:100D20008860084681688165FFE0434890F872005A
:100D3000401C414981F87200F7E0FFE73E4890F817
:100D4000720003281FD13C480169C069081A3A495A
:100D5000496888420FD93848416801624169C163D6
:100D6000B0F87400079006F0E2FF33498860084647
:100D70008168C165D9E0304890F87200401C2E4966
:100D800081F87200D1E02C4890F87200042855D107
:100D90002948C06F07902848C0680690079907F057
:100DA00033F83BD224484168416241690164818A39
:100DB000808F081A2049A1F870000846B0F870002A
:100DC000069006F0B4FF07901B48806F014606901E
:100DD000079806F0ABFD1849C8600846B0F87000E7
:100DE000049006F0A4FF05901348C06801460490E3
:100DF000059806F09BFD4FF08041069006F0C8FD77
:100E000007900D48C06D01460690079806F08BFDCF
:100E10000949886008468168016686E0064890F8BE
:100E20007200401C044981F872007EE0E00000205E
:100E3000000048429002002070010020FE4890F817
:100E4000720005286ED1FC488068FC49079006F0C6
:100E5000E5FF5FD2F8484168816241694164818A57
:100E6000B0F84000081AF449A1F870000846B0F83C
:100E70007000059006F05BFF0690EF48806F01461A
:100E80000590069806F052FD0790EB48C06F0146AA
:100E90000690079806F047FDE749C8600846B0F895
:100EA0007000019006F043FF0390E348B0F8700033
:100EB000009006F03CFF0190DF48806F01460090F3
:100EC000019806F033FD0290039906F02FFD4FF0D4
:100ED0008041049006F05CFD0690D748B0F87000A1
:100EE000039006F024FF0490D348C06F014603909E
:100EF000049806F01BFD0590069906F011FD079079
:100F0000CD48006E01460690079806F00CFDCA49D0
:100F100088600AE0C84890F87200401CC64981F811
:100F2000720002E0C548C4498860C3488068014631
:100F30000790172000F011FD08900898B0F57A7F0F
:100F400052D34FF2B561089888424DD217210898C4
:100F500000F04CFD0121BA4805F08AFF44E0B64894
:100F60000078012824D1B748807D322148433230AF
:100F7000B149A1F87400B348008B00EB8000400039
:100F8000323008610846B0F87400069006F0CFFED3
:100F900001460790172000F0E0FC08901721089800
:100FA00000F024FD0121A64805F062FF1CE091E25B
:100FB000A1480078032817D132209F49A1F8740076
:100FC0000846B0F87400069006F0B1FE014607909E
:100FD000172000F0C2FC08901721089800F006FDC9
:100FE0000121974805F044FF9748007802287DD1F9
:100FF00095484069401C94494861084690F8720041
:10100000012842D10846C06F07900846C068069084
:10101000079906F0F9FE30D28B484168816140693A
:101020008949486308464069069006F080FE0790AB
:101030008548806F01460690079806F077FC824944
:10104000C86008464069049006F071FE05907E482D
:10105000C06801460490059806F068FC4FF0804196
:10106000069006F095FC7949079006F007FC764952
:10107000886008468068486595E1734890F872007A
:10108000401C714981F872008DE16F4890F8720040
:1010900002287DD16C48C0680021079006F0BEFE92
:1010A0007BD26948B0F87400069006F040FE0790C5
:1010B0006548806801460690079806F0AFFE6CD23E
:1010C00061484069B0F5FA7F67D25F484168C16105
:1010D00041698163808A5C49898E401A5A49A1F826
:1010E00070000846B0F87000059000E075E106F069
:1010F0001EFE06905448806F01460590069806F043
:1011000015FC07905048C06F01460690079806F0FE
:101110000AFC4D49C8600846B0F87000029006F01D
:1011200006FE04904848B0F87000019006F0FFFDFC
:1011300002904548806F01460190029806F0F6FB48
:101140000390049906F0F2FB4FF08041059006F001
:101150001FFC07903C48B0F87000039006F0E7FDD4
:1011600004903948C06F01460390049806F0DEFBF6
:1011700005903548406D01460490059806F07EFBC9
:101180000690079906F0CCFB2F498860084601E0DD
:101190000BE002E08168816505E12B4890F8720060
:1011A000401C294981F87200FDE0274890F8720040
:1011B00003281FD124480169C069081A22494968D7
:1011C00088420FD92048416801624169C163B0F883
:1011D0007400079006F0ABFD1B49886008468168E3
:1011E000C165E0E0184890F87200401C164981F88B
:1011F0007200D8E0144890F8720004285BD11248BD
:10120000C06F07901048C0680690079906F0FCFD73
:1012100048D20D484168416241690164818A808FEA
:10122000081A0949A1F870000846B0F87000069045
:1012300006F07DFD07900BE07001002000004842A1
:101240000008004090020020000200200000C84278
:10125000A748806F01460690079806F067FBA449EF
:10126000C8600846B0F87000049006F060FD059074
:101270009F48C06801460490059806F057FB4FF060
:101280008041069006F084FB07909948C06D0146A6
:101290000690079806F047FB9549886008468168E4
:1012A000016680E0924890F87200401CC1B29048FC
:1012B00080F8721077E08E4890F8720005286FD1A0
:1012C0008B4880688B49079006F0A8FD5FD288485C
:1012D0004168816241694164818AB0F84000081A1E
:1012E00081B28348A0F87010B0F87000059006F045
:1012F0001EFD06907E48806F01460590069806F018
:1013000015FB07907A48C06F01460690079806F0D3
:101310000AFB7749C8600846B0F87000019006F0F3
:1013200006FD03907248B0F87000009006F0FFFCD4
:1013300001906F48806F01460090019806F0F6FA20
:101340000290039906F0F2FA4FF08041049006F003
:101350001FFB06906648B0F87000039006F0E7FCAB
:1013600004906348C06F01460390049806F0DEFACB
:101370000590069906F0D4FA07905D48006E014684
:101380000690079806F0CFFA594988600BE0584854
:1013900090F87200401C564981F8720003E0FFE7A4
:1013A0005448534988605248806801460790172086
:1013B00000F0D3FA08900898B0F57A7F50D34FF236
:1013C000B561089888424BD21721089800F0F7FAC7
:1013D0000121494805F04CFD42E0454800780128CC
:1013E00023D14648807D3221484332304049A1F81C
:1013F00074004248008B00EB80004000143008610C
:101400000846B0F87400069006F091FC014607907B
:10141000172000F0A2FA08901721089800F0CFFAE0
:101420000121354805F024FD1AE0314800780328F1
:1014300016D164212E48A0F87410B0F874000690FC
:1014400006F075FC01460790172000F086FA089018
:101450001721089800F0B3FA0121274805F008FD8C
:1014600000F072F82648008820B125480088401E08
:1014700023490880234800781D49097808442249F7
:1014800009780844214908702148007888B121482A
:101490000078401C1F490870084600780A2808DDBB
:1014A00001211D4806F091F80020194908701949DA
:1014B00008701A48008820B118480088401E174953
:1014C000088017480088002804DD15480088401E61
:1014D0001349088009B000BD10B50121880705F047
:1014E00090FF18B10121880705F09CFF10BD000096
:1014F000000200200000C8420004004090020020CA
:1015000030000020E0000020700100202F000020AB
:101510004D0000202D000020004800402600002043
:101520002400002070B505460C4645F2555004F0E5
:101530007DFE284604F07DFE204604F07DFE04F08A
:101540007EFE04F081FE70BD10B504F078FE10BD83
:1015500010B500F029F8FEF743FF4FF4165002F0E3
:1015600039FC4FF4165002F089FC4FF4165001F08C
:10157000ADFC4FF4165002F0D6FB4FF4165002F0BB
:1015800079FB01200649087000F078F840F6B83180
:101590000620FFF7C7FF00200249087010BD0000B9
:1015A000700000204B00002010B56FF0040004F024
:1015B000E2FB2E4800682E49B0FBF1F02D4908707F
:1015C0000846007800EB4001C1EBC0104FF6FF71F8
:1015D00001EAC0002849088010BD0146254A12785A
:1015E0004A434FF0E0235A6100229A611A46126979
:1015F00042F001021A6100BF4FF0E022106900F0D2
:1016000001021AB100F48032002AF5D04FF0E02236
:10161000126922F001024FF0E0231A6100229A6160
:1016200070470146144A12884A434FF0E0235A613A
:1016300000229A611A46126942F001021A6100BF43
:101640004FF0E022106900F001021AB100F480327C
:10165000002AF5D04FF0E022126922F001024FF08B
:10166000E0231A6100229A61704700000000002008
:1016700000127A003A0000203C00002010B5002142
:101680004FF0006004F05FFB4FF4A06004F024FB17
:1016900010BD012080F3138800BF00BF064800681A
:1016A00000F4E06005490843001D03490860BFF3EA
:1016B0004F8F00BF00BFFEE70CED00E00000FA0511
:1016C0001FB501213C2004F03FFF0121084604F032
:1016D0003BFF0121084604F044FF0121022004F0F1
:1016E00040FF0121042004F03CFF4220ADF80C0033
:1016F00018208DF80F0003208DF80E0003A9FE4876
:1017000004F046FC0120ADF80C0018208DF80F0005
:1017100003208DF80E0003A9F84804F039FC0020DE
:10172000F749C880488008724FF0804005F044F8BF
:101730006020F4490880012048800420888000202F
:10174000088148814FF0804005F073F80821C806F1
:1017500005F0BEFC00214FF0804005F089FB002021
:10176000E749C88048800872E74805F025F86020FE
:10177000E4490880012048800420888000200881F6
:101780004881E14805F02FF90821DF4805F0BFFC4A
:101790000021DD4805F06CFB0020D9490880C88095
:1017A00048800872D94805F007F86020D5490880BC
:1017B0000120488004208880002008814881D34887
:1017C00005F037F80821D14805F082FC0021CF4808
:1017D00005F04EFB0220ADF80C0048208DF80F00FC
:1017E00003A9C64804F0D4FB0121002004F0E6FC64
:1017F0000220019000208DF8080008208DF80900D3
:1018000001208DF80A0001A804F0E2FA07208DF803
:10181000000001208DF801008DF802008DF8030012
:10182000684604F05EFA0120ADF80C0048208DF8FF
:101830000F0003A9B04804F0ABFB0021012004F025
:10184000BDFC0120019000208DF8080008208DF8D3
:10185000090001208DF80A0001A804F0B9FA062059
:101860008DF8000001208DF8010003208DF80200A2
:1018700001208DF80300684604F033FA1020ADF81B
:101880000C0048208DF80F0003A9A14804F080FB4C
:101890000421022004F092FC1020019000208DF819
:1018A000080008208DF8090001208DF80A0001A821
:1018B00004F08EFA0A208DF8000001208DF8010056
:1018C00002208DF8020001208DF80300684604F024
:1018D00008FA1520ADF80C0010208DF80F00032039
:1018E0008DF80E0003A98B4804F052FB152189489E
:1018F00004F0FDFB1020ADF80C008DF80F00032064
:101900008DF80E0003A97D4804F042FB2020ADF8BD
:101910000C0010208DF80F0003208DF80E0003A995
:101920007B4804F035FB4FF48050ADF80C001020DC
:101930008DF80F0003208DF80E0003A96E4804F007
:1019400027FB4FF4E070ADF80C0048208DF80F0035
:1019500003A96A4804F01CFB1FBD2DE9F0410446B1
:101960000D46601C06F0E3F907462946384605F0A7
:10197000DDFF07463946684806F00AF880464FF012
:101980007E5105F0CDFF0646304606F0F3F9BDE87E
:10199000F08170B504460D464FF0804005F01FFD04
:1019A000A04204D900214FF0804005F0F5FC4FF033
:1019B00080418C850D85C4F34F00888670BD70B55D
:1019C00004460D46504805F00AFDA04203D9002107
:1019D0004D4805F0E1FC4C492C310C80091F0D806D
:1019E000C4F34F0048494031088070BD70B50446CB
:1019F0000D46464805F0F3FCA04203D900214348B8
:101A000005F0CAFC41492C310C80091F0D80C4F33C
:101A10004F003E493431088070BD2DE9F041054644
:101A20000F461646002F65D13C4806603C4880F8BA
:101A300084603C48D0F8180110B90EB9BDE8F081B7
:101A40003748007800283ED135480561B5F5367F26
:101A50003AD2C8203249A1F87400B1F87410890054
:101A6000A1F1C80006F05AF980462F4905F090FF11
:101A70002B49C867B1F87410C900A1F5C87006F009
:101A80004DF98046294905F083FF25498867284894
:101A9000886000204860486100240CE00021204854
:101AA000183040F824101C3040F82410203040F842
:101AB0002410601CC4B2072CF0DB02201849087007
:101AC000012081F87200EEE1B5F5B66F5ED24FF4F9
:101AD00096701349A1F87400B1F874108900A1F14F
:101AE000C80006F01BF98046124905F051FF0C4969
:101AF000C86721E086E00000000C014000080140BA
:101B0000D4000020C4000020000400400008004071
:101B100000100140001801404054894C94012242B9
:101B2000E0000020008022420000C84300409C47A3
:101B30000000484200007A44B1F87410C900A1F5D1
:101B4000C87006F0EBF88046FE4905F021FFFE491B
:101B50008867FE48886000204860486100240CE0E7
:101B60000021F948183040F824101C3040F82410A7
:101B7000203040F82410601CC4B2072CF0DB022097
:101B8000F1490870012081F872008CE14FF448702F
:101B9000ED49A1F87400B1F874108900A1F1C800F2
:101BA00006F0BCF88046EA4905F0F2FEE649C8674F
:101BB000B1F87410C900A1F5C87006F0AFF88046FE
:101BC000E44905F0E5FEE0498867E04888600020C8
:101BD0004860486100240CE00021DB48183040F8E0
:101BE00024101C3040F82410203040F82410601CD1
:101BF000C4B2072CF0DB0220D3490870012081F821
:101C0000720050E1012F77D1D3480660D34880F8A5
:101C10008460D348D0F8280108B906B90EE7CF4848
:101C200000780028B1D1CD480561B5F51C7F3AD8C0
:101C30003C20CA49A1F87400B1F87410C900A1F59C
:101C4000C87006F06BF88046C64905F0A1FEC3498E
:101C50008867B1F874108900A1F1C80006F05EF839
:101C60008046C14905F094FEBC49C867B748886002
:101C700000204860486100240CE00021B74818307B
:101C800040F824101C3040F82410203040F8241074
:101C9000601CC4B2072CF0DB0220B04908700120A0
:101CA00081F87200FFE040F2D44085423BD2C82068
:101CB000AA49A1F87400B1F87410C900A1F5C87060
:101CC00006F02CF88046A94905F062FEA349886712
:101CD000B1F874108900A1F1C80006F01FF8804621
:101CE000A34905F055FE9D49C867984888600020C3
:101CF0004860486100240DE091E0002197481830C9
:101D000040F824101C3040F82410203040F82410F3
:101D1000601CC4B2072CF0DB02209049087001203F
:101D200081F87200BFE040F6A81085423BD24FF424
:101D3000FA708A49A1F87400B1F874108900A1F111
:101D4000C80005F0EBFF80468A4905F021FE834973
:101D5000C867B1F87410C900A1F5C87005F0DEFFBE
:101D60008046854905F014FE7C498867774888607D
:101D700000204860486100240CE0002177481830BA
:101D800040F824101C3040F82410203040F8241073
:101D9000601CC4B2072CF0DB0220704908700120DF
:101DA00081F872007FE04FF448706C49A1F874002C
:101DB000B1F874108900A1F1C80005F0AFFF8046AA
:101DC000634905F0E5FD6549C867B1F87410C900BD
:101DD000A1F5C87005F0A2FF80465E4905F0D8FD68
:101DE0005E4988675948886000204860486100243F
:101DF0000CE000215948183040F824101C3040F8FD
:101E00002410203040F82410601CC4B2072CF0DBF2
:101E1000022052490870012081F8720043E05748BF
:101E20000660574880F884600078E0BB544805613C
:101E30004FF4C8705249A1F87400B1F874108900C9
:101E4000A1F5C87005F06AFF80464E4905F0A0FD77
:101E50004B49C867B1F87410C900A1F5487005F086
:101E60005DFF8046374905F093FD454988673E4848
:101E7000886000204860486100240CE00021404850
:101E8000183040F824101C3040F82410203040F85E
:101E90002410601CC4B2072CF0DB02203849087003
:101EA000012081F8720000BFC8E52DE9F34F83B02F
:101EB0008A46039805F051FF334A344BCDE90001BF
:101EC00005F0BDFE074605F082FF02901E49D1F8DD
:101ED000800005F02CFF0746029905F095FF0ED211
:101EE00001261949D1F8800005F021FF80460299AA
:101EF00005F019FD074605F03DFF04460DE00026FC
:101F00001149D1F8800005F012FF8046029905F0D2
:101F100007FD074605F02EFF0446504605F01DFF5D
:101F200007461B4A1B4B05F08AFECDE9000105F070
:101F30004EFF83460949D1F8800005F0F8FE0746B8
:101F4000594629E00024F448E000002000004842FF
:101F500000007A450024F44AB0812142700100203B
:101F60000000234200409C450000C84200409C47BE
:101F70000000C8430000FA440024F44990012142C3
:101F80000002002000007A442B8716D9CEF7E53FE7
:101F9000C503CAA65CE1D93F05F036FF0FD24FF06A
:101FA0000109FE49D1F8800005F0C1FE804659467E
:101FB00005F0B9FC074605F0DDFE05460EE04FF0E2
:101FC0000009F649D1F8800005F0B1FE8046594677
:101FD00005F0A6FC074605F0CDFE05463246002179
:101FE0002046FFF71AFD4A4601212846FFF715FD56
:101FF00005B0BDE8F08F10B5E9480078002868D03A
:10200000E848006888BBE748001D006868BBE548F1
:102010000830006848BBE24890F88400012824D1C9
:10202000DF484068642820D9DF480078401CDE493A
:10203000087008460078012804D1D948006928387A
:10204000D749486000BFD64800780028FBD1D44962
:1020500008700021D54804F00BFF0020D249087019
:10206000CF4908650120D2498870CE48006880BBFE
:10207000CC48001D006860BBCA480830006840BBFF
:10208000C74890F8840020BBC5484068642820D920
:10209000C8480078401CC7490870084600780128E5
:1020A00004D1BF4800691E38BD49486000BFBC4824
:1020B00000780028FBD1BA4908700021BB4804F021
:1020C000D7FE0020B6490865BA4908700120B84912
:1020D000887010BD0122B84B83F88420B74A116084
:1020E0001A46106100225A6003221A70704710B518
:1020F000AA480078A8B1B248006890B9A74890F8FB
:10210000840001280DD1012232210846FEF745F94D
:102110000020A24908700021AA4804F0A9FE01F09D
:1021200062FDA948007801281CD10020A64908704A
:102130004FF4FA70A549088000BFA4480088002821
:10214000FBD101212E20FFF7C5FF00BF9A48007880
:102150000028FBD19849C1F8800001209C490871F2
:102160009C49C87096481830006860B9924890F849
:102170008400012807D100208F49087000214FF00A
:10218000804004F075FE10BD10B5044664B900200F
:102190008A490860884981F8840048604CF25030D0
:1021A0000861032008703AE001207E49A4310860EC
:1021B0007A4981F88400C820086100204860032023
:1021C000087017E000F0E4FE7D48006890B973489D
:1021D00090F8840001280DD100207049087000217A
:1021E000784804F045FE01F0FEFC01223221084649
:1021F000FEF7D3F8694800780028E3D14FF4FA706D
:10220000FFF70FFA00206749A4310860634981F89D
:10221000840048604CF2503008610320087010BD03
:102220000021664A1160644A82F8841051601146A8
:10223000086103211170704710B511B101291BD13C
:102240000CE05E4B1A605C4B83F8842000235A4CF0
:10225000636023461861032323700DE0514BA433C0
:102260001A604E4B83F8842000234C4C6360234655
:1022700018610323237000BF00BF10BD10B50220FA
:1022800003F01DFE4C48007800285FD04A484068A3
:10229000401C49494860084690F88400012806D14E
:1022A0000846D0F88000401CC1F880000AE042488F
:1022B000D0F8800030B14048D0F88000401E3E4940
:1022C000C1F880004448006870B93B4890F8840029
:1022D00050B901203C49087000203749087000219E
:1022E0004FF0804004F0C4FD33484068324909692A
:1022F00088422BD300214FF0804004F0B9FD2748DD
:10230000007810B902203549087000202A49087069
:1023100048608860C8600861486181F87200A1F86F
:102320007000A1F874008867C86700240CE00021E1
:102330002148183040F824101C3040F82410203078
:1023400040F82410601CC4B2072CF0DB10BD10B59F
:10235000012003F0B4FD12480078002861D0104835
:102360004068401C0E494860084690F884000128E7
:1023700004D10846006D401C086504E00848006D63
:10238000401E0749086506484068054909698842B2
:1023900047D30021054804F06BFD21E070010020C7
:1023A000000200200C812142420000200004004075
:1023B0009002002043000020E0000020940122420F
:1023C00020012342000800403F0000203000002090
:1023D0004400002096000020188122424100002085
:1023E00000204649087048608860C86008614861FC
:1023F00081F87200A1F87000A1F874008867C867BE
:1024000000240CE000213D48183040F824101C3016
:1024100040F82410203040F82410601CC4B2072C6F
:10242000F0DB10BD10B5102003F049FD34480078F2
:10243000002861D032484068401C31494860084655
:1024400090F88400012806D10846D0F88000401C8E
:10245000C1F880000AE02A48D0F8800030B128484E
:10246000D0F88000401E2649C1F880002548006849
:1024700088B9234890F8840068B900202049087082
:10248000C1F880000120204948712049C87000210E
:102490001F4804F0EDFC1A48406819490969884250
:1024A0002AD300211A4804F0E3FC1A48007810B936
:1024B000022019490870002011490870C86048605E
:1024C00088600861486181F87200A1F87000A1F885
:1024D00074008867C86700240CE0002108481830A1
:1024E00040F824101C3040F82410203040F824100C
:1024F000601CC4B2072CF0DB10BD000000020020FD
:102500007001002028012342440000209F00002089
:1025100000080040E00000204100002070B50446A3
:102520000D46FE48C07901285ED1FC48007A01289A
:102530004AD10020F949C8720872012C22D1F8480A
:102540000078022808D1F64804702246022140F2A1
:10255000CF60FFF762FA70BDF1480078A04208D161
:10256000EF4804702246022140F2C760FFF755FA97
:102570002AE0EB4804702246022140F2F460FFF7A3
:102580004CFA21E0E6480078022808D1E4480470BB
:102590002246022140F2D460FFF73FFADBE7E04831
:1025A0000078A04208D1DE4804702246022140F2A1
:1025B000CC60FFF732FA07E0D948047022460221C6
:1025C00040F2EF60FFF729FAD648007800284ED194
:1025D0000120D24908720846C079401CC8714FF4E6
:1025E000FA70FFF71EF842E0CC48C07902281AD1F1
:1025F000CA48007A012807D10020C8490872002281
:1026000001212846FFF709FAC748007848BB012096
:10261000C24908720846C079401CC8714FF4FA706C
:10262000FEF7FFFF23E0BD48C07903281AD1BB485D
:10263000007A01280DD10020B849087284F0010009
:10264000B749087084F00102022140F6C410FFF778
:10265000E4F9B448007820B9B048C079401CAF49CB
:10266000C87104E00120AD490872C871C87200BF8A
:1026700071E770B504460D46A8484079012818D185
:10268000A648807901280AD10020A449C87288711F
:102690000120A649087029462046FFF706FCA348FA
:1026A000007802280AD19D484079401C9B49487116
:1026B00004E001209949C8724871887170BD70B5F5
:1026C00004460D469548407A01285ED19348807AA9
:1026D00000284AD000209149C8728872012C22D16A
:1026E0008F480078022808D18D48047022460221C4
:1026F00040F2CF60FFF791F970BD89480078A042A1
:1027000008D1874804702246022140F2C760FFF7D3
:1027100084F92AE0824804702246022140F2F460E3
:10272000FFF77BF921E07E480078022808D17C4839
:1027300004702246022140F2D460FFF76EF9DBE715
:1027400077480078A04208D17548047022460221DB
:1027500040F2CC60FFF761F907E07148047022464F
:10276000022140F2EF60FFF758F96E480078002828
:102770004ED16A48407A401C6849487201208872EC
:102780004FF4FA70FEF74DFF42E06448407A0228A9
:1027900019D16248807A38B10020604988720122DC
:1027A00011462846FFF739F95F48007850BB5B486F
:1027B000407A401C59494872012088724FF4FA70DF
:1027C000FEF72FFF24E05548407A03281BD15348D9
:1027D000807A68B184F001005149087084F00102E8
:1027E000022140F6C410FFF718F900204B49887207
:1027F0004C48007830B90120484988720846407A30
:10280000401C487204E00120444988724872C87232
:1028100000BF71E77CB504460D464048007B0128A7
:102820001BD13E48007901282BD129462046FFF7CD
:1028300020FF3A48C07A0128F2D138480078202891
:102840000CD10520354908710020052161236D2236
:10285000CDE90010032100F0B5FAAAE00020022122
:1028600061236D22CDE90010032100F0ABFA2B4863
:102870000079401C294908714FF4FA70FEF7D1FE27
:1028800097E02648007902282DD12449097801F0E3
:10289000010181F001006921FFF711FF1F48C07A93
:1028A0000128DAD11D48407858B90020032161235E
:1028B0006D22CDE9001000F085FA05201749087156
:1028C00077E00020032161236D22CDE9001000F0A4
:1028D00079FA12480079401C104908714FF4FA70D7
:1028E000FEF79FFE65E00D480079032831D10B48C3
:1028F0004078012803D009484078022859D1074A76
:10290000528B463291B2054A908BFFF7B2FE0348D4
:10291000C07A01284DD10020042109E09002002056
:102920004A00002000020020700100204100002029
:1029300061236D22CDE90010032100F043FAFE4827
:102940000079401CFC4908714FF4FA70FEF769FEEB
:102950002FE0F9480079042821D1F7494978491036
:1029600009B9012100E000210846C821FFF7D6FD82
:10297000F148C07A01281CD10020052161236D2275
:10298000CDE90010032100F01DFAEB480079401C4E
:10299000E94908714FF4FA70FEF743FE09E001F0CF
:1029A00022F90120E449087100200873C8720882E6
:1029B00048827CBD7CB504460D46DF48407B01283B
:1029C00028D1DD48C078012825D1DB48407818B9E6
:1029D0000320D949C87007E0D74A528B0F3A91B209
:1029E000D54A908BFFF745FED348C07A0128E7D13E
:1029F0000020022161236D22CDE90010032100F0A7
:102A0000E1F9CD48C078401CCB49C8704FF4FA704A
:102A1000FEF707FE95E0C848C078022820D1C649D5
:102A20004978491009B9012100E000210846C82170
:102A3000FFF745FEC048C07A0128EBD100200321F2
:102A400061236D22CDE9001000F0BCF9BA48C078CE
:102A5000401CB949C8704FF4FA70FEF7E2FD70E00F
:102A6000B548C07803282CD129462046FFF701FE3F
:102A7000B148C07A012864D1AF484078012803D01A
:102A8000AD484078022809D10020042161236D223D
:102A9000CDE90010032100F095F908E000200221A3
:102AA00061236D22CDE90010032100F08BF9A248CB
:102AB000C078401CA049C8704FF4FA70FEF7B1FD11
:102AC0003FE09D48C078042830D19B49097801F047
:102AD000010181F001006921FFF720FD9648C07ACD
:102AE00001282ED194484078012803D0924840789C
:102AF000022809D10020052161236D22CDE90010B3
:102B0000032100F05FF907E00020032161236D221B
:102B1000CDE9001000F056F98748C078401C86497E
:102B2000C8704FF4FA70FEF77CFD0AE001F05BF824
:102B30000020814948730120C8700020C8720882B3
:102B400048827CBD70B505460C4605BB7B480068D5
:102B5000012809D07948001D0068012804D0774871
:102B600008300068012805D1052232210846FDF70A
:102B700014FC70BD724880F8844090F8840071495C
:102B8000086000206E494860012008702FE0022D87
:102B90000CD16D4880F8844090F884006B4908603F
:102BA0000020694948600120087020E063480068FF
:102BB000012809D06148001D0068012804D05F4841
:102BC00008300068012805D1052232210846FDF7AA
:102BD000E4FBCEE75E4880F8844090F884005749D3
:102BE000A431086000205A4948600120087000BFE5
:102BF000BFE71CB55748C078012824D15548407814
:102C0000012821D15348007870B90120514908703A
:102C10004A49A43108604E4981F88400C8200861FF
:102C20000020486003200870494800780028E4D15B
:102C300048484078401C47494870002008704FF4CD
:102C4000FA70FEF7EEFCAFE042484078022839D136
:102C500040480078E0B901203E490870002037491B
:102C6000A43108603A4981F8840048604CF2503041
:102C700008610320087000203749C1F894013049E9
:102C800081F8840048604CF25030086103200870DD
:102C90002F4800780028D6D1294800780028D2D1C2
:102CA0002C48007901287FD100202A490871084664
:102CB0004078401C4870002008704FF4FA70FEF70E
:102CC000B0FC71E023484078032821D121480078E6
:102CD00070B901201F4908701C4908601A4981F821
:102CE00084004FF4FA7008610020486003200870E7
:102CF00015480078002857D116484078401C1549DF
:102D00004870002008704FF4FA70FEF78AFC4BE020
:102D100010484078042837D10E48007810BB0120B5
:102D20000C490870002009490860074981F88400AF
:102D30004FF47A70086111E0900200200C8121426A
:102D4000E000002094012242000200209001214274
:102D50007001002044000020000022420020486052
:102D60000320087014480078F0B900201349087057
:102D700013484078401C12494870002008704FF4F6
:102D8000FA70FEF74EFC0FE00020052161236D2252
:102D9000CDE90010032100F015F8012008498870E2
:102DA000487000200870C8701CBD01200449C8701C
:102DB0000020887070470000000200204A000020B8
:102DC000440000202DE9F05F0546884691469A466A
:102DD0000B9EE80000F10A07384605F039F9044671
:102DE0003946204604F03FFDAA202070552060702F
:102DF000A57084F8038084F8049084F805A00A98EC
:102E0000A071012D18D13078207270786072B0787E
:102E1000A072F078E0723079207370796073B079C5
:102E2000A073F079E073A021E800083021545F21FD
:102E3000E8000930215407E0A021E80008302154BF
:102E40005F21E80009302154022012E0072809D050
:102E5000082101EBC501814204D0092101EBC50124
:102E6000814200D104E0E179225C1144E17100BFAC
:102E7000401CE9000A318142E8DC4FF0000B0DE014
:102E800000BF4021FE4804F07BFC0128F9D114F872
:102E90000B10FB4804F006FC0BF1010BBB45EFD314
:102EA000204605F0ADF8BDE8F09F1CB5F5488078E8
:102EB00001280AD10020F3498870052161236D2281
:102EC000CDE900100321FFF77DFF1CBD10B586B0D2
:102ED00004460121880403F044FB0121082003F08B
:102EE00033FBE74804F0A2FA4FF48060ADF8140019
:102EF00003208DF8160018208DF8170005A9E24868
:102F000003F046F84FF40060ADF8140004208DF88B
:102F1000170005A9DC4803F03BF801940020ADF848
:102F20000800ADF80A00ADF80C00ADF810000C2058
:102F3000ADF80E0001A9D24804F0BBFA0120D34934
:102F400008608021CE4804F028FC0121CC4804F020
:102F50003CFB012240F22551C94804F042FB2720E6
:102F60008DF8000002208DF8010003208DF802008A
:102F700001208DF80300684602F0B3FE0020C4492A
:102F8000097801EB0111C34A02F8110006B010BD27
:102F90002DE9FC5FBE48007800287DD0BE4800784F
:102FA00000280CDDBA480078401E00EB0010B9493B
:102FB00001EB40000079062801D0BDE8FC9FB44831
:102FC0000078401E00EB0010B24901EB400090F881
:102FD0002010AF480078401E00EB0010AD4A02EB15
:102FE0004000007A814226D00021A9480078401E86
:102FF00000EB001002EB400080F82010A44800789D
:10300000401E00EB001002F81010A1490978491E7B
:1030100001EB011102EB4101481C1E2104F023FCCD
:103020009B480078401E9A490870032232210846C6
:10303000FDF7B3F9C1E796480078401E00EB001099
:10304000944901EB400040796D2825D1002190483A
:103050000078401E00EB00108E4A02EB4000017227
:103060008B480078401E00EB001002F810108848D2
:103070000078401E00EB001002EB400080F82010AA
:1030800083480078401E00EB0010114601EB400021
:1030900000798249888200E0F4E37D480078401E90
:1030A00000EB0010114601EB4000C0797B4908702D
:1030B00077480078401E00EB0010114601EB4000FD
:1030C000807800285DD072480078401E00EB001028
:1030D00001EB4000817A6E480078401E00EB001042
:1030E00002EB4000407A01EB00206C4908826848FE
:1030F0000078401E00EB0010114601EB4000017B00
:1031000063480078401E00EB001002EB4000C07ADC
:1031100001EB0020614948825D480078401E00EBC9
:103120000010114601EB4000407B5C494870584854
:103130000078401E00EB0010114601EB4000C17BFF
:1031400053480078401E00EB001002EB4000807BEB
:1031500001EB0020514988834D480078401E00EB68
:103160000010114601EB4000417C49480078401EA8
:1031700000EB001002EB4000007C01EB002047490F
:10318000488343490978491E01EB0111414A02EB8A
:103190004101481C1E2104F066FB3D480078401E9A
:1031A0003B4908703D48808A09280AD2DFE810F0C0
:1031B00009000A000B00F500A2022903B703EB0483
:1031C000FD047CE2FDE73649D1F8800004F0C5FD3E
:1031D0008246344A344B04F0C0FC80460022334B14
:1031E00004F014FC06460022314B04F028FD04468E
:1031F00004F0D4FD2F4908702949D1F8800004F06B
:10320000ACFD8046274A284B04F0A7FC0646002266
:10321000264B04F0FBFB04460022274B04F00FFD75
:10322000CDE9000104F0BAFD00F0FF0A4FEAEA70B0
:103230000AEB10600012AAEB00201E4948701F49DB
:10324000D1F8800004F089FD80461D4A1D4B04F032
:1032500084FC06460022154B04F0D8FB04460022ED
:10326000134B04F0ECFC824604F098FD1149887081
:103270001249D1F8800004F070FD8046104A23E026
:103280000048004044000020000C0140BC012142E5
:1032900056000020AE0200202F00002090020020E7
:1032A000E00000202B8716D9CEF7E53F0000E03F75
:1032B000000070404E0000200000F03F7001002030
:1032C000C503CAA65CE1D93FFD4B04F046FC0646A7
:1032D0000022FC4B04F09AFB04460022FA4B04F057
:1032E000AEFCCDE9000104F059FD00F0FF0A4FEA01
:1032F000EA700AEB10600012AAEB0020F349C870D4
:10330000F348006D002802DA0120087102E0002075
:10331000EE490871EE49086D04F00EFD8046ED4A55
:10332000ED4B04F01AFC06460022E64B04F06EFB5F
:1033300004460022E44B04F082FCCDE9000104F0D5
:103340002DFD00F0FF0A4FEAEA700AEB1060001250
:10335000AAEB0020DD494871E048008BB0F57A7F88
:1033600004D0DE48007E401C887102E0F020D7497E
:103370008871DA48807DD549C871084600216123EB
:103380006D22CDE9001002210120FFF71BFD012273
:1033900032210846FDF701F813E7D04800781128DC
:1033A00074D005DC48B101284DD010284AD191E0F5
:1033B00020286CD03028F9D117E1C94800780028BE
:1033C00040D1C848007800283CD1C1480078002886
:1033D00038D1C5480068012809D0C348001D0068DD
:1033E000012804D0C04808300068012809D1002015
:1033F000FF2161236D22CDE900100321FFF7E2FCDC
:10340000DBE50020012161236D22CDE900100321BD
:10341000FFF7D8FC0120B5490870B049087308715E
:1034200048718871C871887008724872887208463D
:10343000408A0F3848820020C87201223221084693
:10344000FCF7ABFF3AE1A6480078002841D1A54837
:10345000007800283DD19E480078D0BBA248006883
:10346000012809D0A048001D0068012804D09E480A
:103470000830006801280BD10020FF2161236D2254
:10348000CDE900100321FFF79DFC96E567E0E2E03F
:103490000020012161236D22CDE900100321FFF7F7
:1034A00091FC0120914908708C490873087148719A
:1034B0008871C87188700872487288720846408A9C
:1034C0000F3848820020C872012232210846FCF7DA
:1034D00064FFF3E08248007800283FD181480078FB
:1034E000E0BB7B480078C8BB7F480068012809D052
:1034F0007D48001D0068012804D07B480830006822
:10350000012809D10020FF2161236D22CDE900109F
:103510000321FFF757FC50E50020012161236D22B4
:10352000CDE900100321FFF74DFC01206F49087021
:103530006A494873C87048718871C87108724872C6
:1035400088720020C872012088700846408A0F30B7
:103550004882012232210846FCF71FFFAEE0604896
:103560000078E8BB5F480078D0BB59480078B8BB0A
:103570005D480068012809D05B48001D00680128EB
:1035800004D0594808300068012809D10020FF21E3
:1035900061236D22CDE900100321FFF713FC0CE538
:1035A0000020012161236D22CDE900100321FFF7E6
:1035B00009FC01204D49087048494873C87048719A
:1035C0008871C8710872487288720020C872012020
:1035D00088700846408A0F3048820122322100E07C
:1035E00002E00846FCF7D9FE68E03D48007888BB59
:1035F0003C48007870BB3648007858BB3A480068B1
:10360000012809D03848001D0068012804D0364838
:1036100008300068012809D10020FF2161236D22B4
:10362000CDE900100321FFF7CDFBC6E40020012106
:1036300061236D22CDE900100321FFF7C3FB0120B8
:103640002B49C870487000200870012232210846BA
:10365000FCF7A3FE32E02248007870BB21480078D6
:1036600058BB1B48007840BB1F480068012809D0A0
:103670001D48001D0068012804D01B480830006860
:10368000012809D10020FF2161236D22CDE900101E
:103690000321FFF797FB90E40120144908700F49BC
:1036A000087308710020C872012048718871887001
:1036B000012232210846FCF770FE00BF00BF8FE2F6
:1036C0005CE1D93F0000E03F0000F03F4E000020E9
:1036D000000200200AD7A3703D0AB73F90020020E5
:1036E000E0000020700100200C81214241000020F8
:1036F000440000200120FD4988730020012161233E
:103700006D22CDE900100321FFF75CFBF74800783C
:1037100000F0300020B1102842D020286AD12BE0E0
:10372000F3480068012809D0F148001D006801280D
:1037300004D0EF4808300068012809D10020FF219B
:1037400061236D22CDE900100321FFF73BFB34E438
:10375000E648007800F0010010B101280AD104E029
:1037600000210846FFF7EEF904E001210020FFF7F1
:10377000E9F900BF00BF3DE0DC48007800F001003F
:1037800010B101280AD104E001210220FFF7DAF983
:1037900004E000210220FFF7D5F900BF00BF29E0B7
:1037A000D3480068012809D0D148001D00680128CD
:1037B00004D0CF4808300068012809D10020FF213B
:1037C00061236D22CDE900100321FFF7FBFA31E4FC
:1037D000C648007800F0010028B1012808D1002176
:1037E000FFF7B0F904E001210846FFF7ABF900BF8D
:1037F00000BF00BF00BF012232210846FCF7CDFD0B
:10380000EEE10020012161236D22CDE900100321AA
:10381000FFF7D8FAB54800780411002C01DD102418
:1038200000E0002404F0100010B1102870D134E042
:10383000AE48007800F00F00082828D2DFE800F03A
:103840002704080C10141B230020A849887522E0C7
:103850000120A64988751EE00220A44988751AE057
:103860000320A249887516E00120A24988700871DA
:103870000020C8700FE001209F4988700871002067
:10388000C87008E0ADE106209849887503E0002083
:103890009649887500BF00BF3AE09448007800F070
:1038A000F00000F00F0169BB001110282AD2DFE8F8
:1038B00000F029080C1014181C202929292929296D
:1038C000292400208949088320E0012087490883B2
:1038D0001CE002208549088318E0032083490883FF
:1038E00014E004208149088310E005207F49088303
:1038F0000CE006207D49088308E04FF47A707B498C
:10390000088303E000207949088300BF00BF00BF9F
:1039100000BF012232210846FCF73FFD60E1002094
:10392000012161236D22CDE900100321FFF74AFA3E
:103930006E48007800287DD17049087000214FF052
:10394000804003F095FA00206D49087000216D4811
:1039500003F08EFA00206C49087000216B4803F0D8
:1039600087FA002061490873487348820882012061
:10397000674908705D490871C87048718871C871DD
:103980000872487288720020C8725C49D1F88000C1
:1039900004F0E3F906465F4A5F4B04F0DEF80446A4
:1039A00000225E4B04F032F8804600225C4B04F0AB
:1039B00046F9824604F0F2F95A4908704F49D1F8A5
:1039C000800004F0CAF98046524A534B04F0C5F80F
:1039D00006460022514B04F019F804460022524BCF
:1039E00004F02DF9CDE9000104F0D8F900F0FF0A48
:1039F0004FEAEA700AEB10600012AAEB0020494976
:103A000048704149D1F8800004F0A7F98046474A40
:103A1000474B04F0A2F806460022404B03F0F6FFA5
:103A2000044600223E4B04F00AF9824604F0B6F93F
:103A30003C4900E094E088703349D1F8800004F0FC
:103A40008CF90646394A3A4B04F087F88046002242
:103A5000324B03F0DBFF04460022334B04F0EFF857
:103A6000CDE9000104F09AF900F0FF0A4FEAEA708C
:103A70000AEB10600012AAEB00202A49C870204807
:103A8000006D002802DA0120087102E000202549BB
:103A900008711B49086D04F04FF90646254A264B6C
:103AA00004F05BF8044600221C4B03F0AFFF804695
:103AB00000221D4B04F0C3F8CDE9000104F06EF9BB
:103AC00000F0FF0A4FEAEA700AEB10600012AAEB5E
:103AD0000020144948710548008BB0F57A7F2DD03D
:103AE0000248007E401C88712BE0000090020020FC
:103AF0000C812142960000209F000020E000002061
:103B00000002002000040040700100200008004076
:103B1000410000202B8716D9CEF7E53F0000E03F9B
:103B2000000070404E0000200000F03FC503CAA610
:103B30005CE1D93F0AD7A3703D0AB73FF020414965
:103B400088714148807D3F49C87108460021612342
:103B50006D22CDE9001002210120FFF733F90CE0BE
:103B600001203A4908603A49087040F2DC50FDF7FC
:103B700058FD40F2DC50FDF754FD01223221084689
:103B8000FCF70BFC2CE00020012161236D22CDE924
:103B900000100721FFF716F900202E4908650122C1
:103BA00032210846FCF7F9FB1AE02748007810B1EB
:103BB00001280ED106E001202749887008710020F5
:103BC000C87006E001202549887008710020C8707F
:103BD00000BF00BF012232210846FCF7DEFB00BF18
:103BE00000BF00BF0CE410B500201D490870002183
:103BF0004FF0804003F03CF9002016490870002186
:103C0000184803F035F900201749087000211748BB
:103C100003F02EF900200C4908734873488208828B
:103C200001201349087008490871C87048718871EB
:103C3000C8710872487288720020C87201F0C4FC12
:103C400010BD00004E0000209002002080012242A2
:103C50004B00002000020020960000209F00002062
:103C6000E000002000040040700100200008004037
:103C70004100002010B586B004460121080502F07D
:103C800070FC0121102002F05FFC0121202002F0D5
:103C90005BFCFE4803F0CAFB4FF48050ADF8100007
:103CA00003208DF8120018208DF8130004A9F8489D
:103CB00002F06EF90420ADF810008DF8130004A98D
:103CC000F44802F065F900940020ADF80400ADF866
:103CD0000600ADF80800ADF80C000C20ADF80A00A5
:103CE00035208DF8140004208DF8150002208DF881
:103CF000160001208DF8170005A801F0F2FF6946B3
:103D0000E24803F0D6FB012240F22551DF4803F0E0
:103D100068FC0121DD4803F058FC8021DB4803F0FA
:103D20003CFD06B010BD10B586B004460121C804A4
:103D300002F017FC0121102002F006FCD64803F027
:103D400075FB4FF48060ADF8100003208DF8120071
:103D500018208DF8130004A9CD4802F019F94FF48A
:103D60000060ADF8100004208DF8130004A9C848C5
:103D700002F00EF900940020ADF80400ADF8060042
:103D8000ADF80800ADF80C000C20ADF80A003420A6
:103D90008DF8140003208DF8150005208DF816000D
:103DA00001208DF8170005A801F09BFF6946BA486D
:103DB00003F07FFB012240F22551B74803F011FCCC
:103DC0000121B54803F001FC8021B34803F0E5FC74
:103DD00006B010BD10B586B004460121480402F0BB
:103DE000C0FB0121042002F0AFFBAC4803F01EFB36
:103DF0000420ADF8100003208DF8120018208DF873
:103E0000130004A9A64802F0C3F80820ADF810007A
:103E100004208DF8130004A9A14802F0B9F8009419
:103E20000020ADF80400ADF80600ADF80800ADF8CC
:103E30000C000C20ADF80A0026208DF81400032099
:103E40008DF8150001208DF816008DF8170005A8D3
:103E500001F047FF6946914803F02BFB012240F235
:103E600025518E4803F0BDFB01218C4803F0ADFBCA
:103E700080218A4803F091FC06B010BD10B586B0D1
:103E800004460121880302F05FFB0121042002F0B7
:103E90005BFB844803F0CAFA4FF40070ADF81000E1
:103EA00003208DF8120018208DF8130004A97C4817
:103EB00002F06EF84FF48060ADF8100004208DF829
:103EC000130004A9764802F063F800940020ADF8CE
:103ED0000400ADF80600ADF80800ADF80C000C20A9
:103EE000ADF80A0025208DF8140003208DF8150088
:103EF00002208DF8160001208DF8170005A801F0AA
:103F0000F0FE6946674803F0D4FA012240F22551D9
:103F1000644803F066FB0121624803F056FB8021F0
:103F2000604803F03AFC06B010BD70B505460E4679
:103F3000002405E0315D594803F0B4FB601CC4B2B5
:103F4000AC42F7DB70BD10B540F225514F4803F08D
:103F500057FC4E4803F0AAFB5349087053480078B9
:103F600001287DD15248007805281DD2DFE800F0F5
:103F7000031D384E64004C480078A5280DD14A48EE
:103F800000784C490978C1EB0111C1EBC1014A4AE3
:103F9000505401204649087006E00020444908704A
:103FA0004649086046490870A0E03F4800785A2812
:103FB0000ED13D4800783F490978C1EB0111C1EBB2
:103FC000C1013D4A1144487002203949087006E099
:103FD000002037490870394908603949087085E080
:103FE0003148007833490978C1EB0111C1EBC101B7
:103FF000314A11448870324800782B4909780844C6
:104000002F49087003202A4908706FE0264800787D
:1040100028490978C1EB0111C1EBC101264A1144BD
:10402000C870274800782049097808442449087056
:1040300004201F49087059E01B4801781D4800788A
:10404000C0EB0010C0EBC0001B4A1044001D1B4A0F
:104050001268815419480068401C1849086000E043
:1040600045E0174800781049097808441449087059
:1040700010480078C0EB0010C0EBC0000E490844A7
:104080008078401E0D49096888421BE000500040BE
:104090000010014000140140004C0040004400406A
:1040A0000008014000380140780000207000002026
:1040B000710000205C0000205605002074000020E4
:1040C0007900002011D10020FE490870FE490870D7
:1040D000FE490860FE480078401CFD49087008460B
:1040E0000078042801DB0120087000BF51E1F94885
:1040F0000078072833D2DFE800F004336DA7D3F748
:10410000F500F54800786D2815D0F3480078F3499C
:10411000097801EB410202EBC101F14A1144F14A75
:1041200012788854EF480078401CEE49087001204E
:10413000E849087013E0E8480078E849097801EB9D
:10414000410202EBC101E64A1144E64A1278885462
:104150000020E0490870E4490870E249087017E15E
:10416000DD4800786D2815D0DB480178DB48007801
:1041700000EB400202EBC000D94A1044D94A127841
:104180008154D8480078401CD64908700220D14993
:1041900008701EE0D0480178D048007800EB40025B
:1041A00002EBC000CE4A1044CE4A12788154CD486A
:1041B0000078401CCB4908700120C849097801EB00
:1041C000410202EBC101C64A114488720420C14970
:1041D0000870DDE0C04800786D2815D0BE48017831
:1041E000BE48007800EB400202EBC000BC4A10441D
:1041F000BC4A12788154BB480078401CB949087009
:104200000320B44908701EE0B3480178B348007831
:1042100000EB400202EBC000B14A1044B14A1278F0
:1042200081540220AD49097801EB410202EBC10142
:10423000AB4A114488720420A6490870A948007846
:10424000401CA8490870A3E0A34800786D281FD13E
:104250000320A249097801EB410202EBC101A04A07
:104260001144887204209B4908709B4800789B4940
:10427000097801EB410202EBC101994A1144994AC4
:104280001278885497480078401C9649087006E0D8
:10429000002090490870944908709249087077E0AE
:1042A0008D4800786D2815D105208A4908708A4804
:1042B00001788A48007800EB400202EBC000884A8F
:1042C0001044884A1278815486480078401C8549F9
:1042D000087006E000207F49087083490870814912
:1042E000087055E022E0FFE77B4800780D2815D1E3
:1042F000062078490870784800787849097801EBF9
:10430000410202EBC101764A1144764A1278885480
:1043100074480078401C7349087006E000206D491D
:104320000870714908706F49087031E06A48007878
:104330000A2825D1684801786848007800EB4002D7
:1043400002EBC000664A1044664A1278815400208D
:104350006049087061480078401C6049087000207E
:10436000604908700120604908705C480078132893
:104370000DDB01205949087000205A49087006E0F9
:10438000002054490870584908705649087000BF09
:1043900000BF10BD10B540F22551544803F030FA6B
:1043A000524803F083F94C490870514800780128BD
:1043B0007ED14448007805281DD2DFE800F0031DB7
:1043C000384E640044480078A5280DD14248007852
:1043D0003F490978C1EB0111C1EBC101454A505475
:1043E00001203849087006E0002036490870374936
:1043F0000860354908709EE0374800785A280ED189
:104400003548007832490978C1EB0111C1EBC1018F
:10441000384A1144487002202A49087006E00020FA
:1044200028490870294908602749087083E02A480C
:10443000007827490978C1EB0111C1EBC1012D4A70
:1044400011448870204800782349097808441E499F
:10445000087003201B4908706DE01F4800781C4954
:104460000978C1EB0111C1EBC101224A1144C870A6
:104470001548007818490978084413490870042041
:104480001049087057E01448017811480078C0EBD3
:104490000010C0EBC000174A1044001D0B4A126800
:1044A00081540A480068401C08490860064800E03A
:1044B00042E0007808490978084403490870044834
:1044C000007819E0710000207900002074000020BD
:1044D0005C00002084000020780000209200002072
:1044E000F40700209000002091000020004C0040C4
:1044F0007000002056050020C0EB0010C0EBC0008B
:10450000FE4908448078401EFD490968884211D15F
:104510000020FC490870FC490870F9490860FB4814
:104520000078401CF949087008460078042801DB2F
:104530000120087000BF51E1F5480078072833D208
:10454000DFE800F004336DA7D3F7ED00F148007801
:104550006D2815D0EF480078EF49097801EB41024A
:1045600002EBC101ED4A1144ED4A12788854EC483F
:104570000078401CEA4908700120E549087013E002
:10458000E4480078E449097801EB410202EBC101FB
:10459000E24A1144E24A127888540020DC4908704B
:1045A000E0490870DE49087017E1DA4800786D28A4
:1045B00015D0D8480178D848007800EB400202EBCB
:1045C000C000D64A1044D64A12788154D4480078A4
:1045D000401CD34908700220CD4908701EE0CD4828
:1045E0000178CD48007800EB400202EBC000CB4AD6
:1045F0001044CB4A12788154C9480078401CC849FD
:1046000008700120C449097801EB410202EBC101A5
:10461000C24A114488720420BD490870DDE0BD48DB
:1046200000786D2815D0BB480178BB48007800EBB6
:10463000400202EBC000B94A1044B94A12788154D2
:10464000B7480078401CB64908700320B04908708C
:104650001EE0B0480178B048007800EB400202EB61
:10466000C000AE4A1044AE4A127881540220AA49D2
:10467000097801EB410202EBC101A84A114488729A
:104680000420A3490870A6480078401CA44908707B
:10469000A3E0A04800786D281FD103209E49097827
:1046A00001EB410202EBC1019C4A114488720420D3
:1046B00097490870974800789749097801EB4102BB
:1046C00002EBC101954A1144954A127888549448E6
:1046D0000078401C9249087006E000208C49087060
:1046E000904908708E49087077E08A4800786D28F4
:1046F00017D10520864908708648017886480078D9
:1047000000EB400202EBC000844A1044844A127855
:10471000815483480078401C8149087008E02AE0F1
:1047200007E000207A4908707E4908707C490870CB
:1047300053E0784800780D2815D106207449087098
:10474000744800787449097801EB410202EBC10119
:10475000724A1144724A1278885471480078401C99
:104760006F49087006E00020694908706D490870BB
:104770006B49087031E0674800780A2825D1654800
:1047800001786548007800EB400202EBC000634A04
:104790001044634A1278815400205D4908705E48D5
:1047A0000078401C5C49087000205D4908700120B9
:1047B0005C4908705848007813280DDB01205649E1
:1047C000087000205649087006E000205049087023
:1047D000544908705249087000BF00BF10BD10B5A1
:1047E00040F22551504803F00BF84F4802F05EFFAD
:1047F000484908704D48007801287DD1414800782B
:1048000005281DD2DFE800F0031D384E6400414842
:104810000078A5280DD13F4800783C490978C1EBC4
:104820000111C1EBC101354A5054012035490870CE
:1048300006E00020334908703149086032490870A9
:104840009EE0344800785A280ED1324800782F492B
:104850000978C1EB0111C1EBC101284A114448702C
:1048600002202849087006E00020264908702449E3
:1048700008602549087083E02648007823490978B4
:10488000C1EB0111C1EBC1011C4A114488701E48E3
:1048900000782049097808441B4908700320194909
:1048A00008706DE01B48007818490978C1EB0111C8
:1048B000C1EBC101114A1144C87013480078154971
:1048C000097808441049087004200E49087057E020
:1048D000104801780D480078C0EB0010C0EBC00014
:1048E000064A1044001D064A1268815404480068B4
:1048F000401C034908601BE043E00000560500200F
:104900007400002071000020790000205C0000206D
:10491000840000207800002092000020F40700208E
:10492000900000209100002000480040700000200E
:10493000FA480078FA4909780844F8490870F948B3
:104940000078C0EB0010C0EBC000F7490844807845
:10495000401EF6490968884211D10020F4490870C8
:10496000EE490870F1490860EE480078401CED49B6
:10497000087008460078042801DB0120087000BF99
:1049800051E1EC480078072833D2DFE800F0043327
:104990006DA7D3F7F500E24800786D2815D0E04800
:1049A0000078E549097801EB410202EBC101E34AD5
:1049B0001144E34A12788854E1480078401CE049E9
:1049C00008700120DB49087013E0D5480078DA4907
:1049D000097801EB410202EBC101D84A1144D84ADF
:1049E000127888540020D3490870D6490870D449F9
:1049F000087017E1CA4800786D2815D0C8480178BA
:104A0000CD48007800EB400202EBC000CB4A1044D6
:104A1000CB4A12788154CA480078401CC8490870B3
:104A20000220C44908701EE0BD480178C2480078E1
:104A300000EB400202EBC000C04A1044C04A1278AA
:104A40008154BF480078401CBD4908700120BA4914
:104A5000097801EB410202EBC101B84A11448872A6
:104A60000420B4490870DDE0AD4800786D2815D009
:104A7000AB480178B048007800EB400202EBC00080
:104A8000AE4A1044AE4A12788154AD480078401CBA
:104A9000AB4908700320A74908701EE0A0480178C0
:104AA000A548007800EB400202EBC000A34A104486
:104AB000A34A1278815402209F49097801EB4102F0
:104AC00002EBC1019D4A1144887204209949087083
:104AD0009B480078401C9A490870A3E090480078F1
:104AE0006D281FD103209449097801EB410202EBA4
:104AF000C101924A1144887204208E490870884886
:104B000000788D49097801EB410202EBC1018B4A23
:104B100011448B4A1278885489480078401C88498F
:104B2000087006E0002083490870864908708449AF
:104B3000087077E07A4800786D2815D105207D4906
:104B40000870774801787C48007800EB400202EB5F
:104B5000C0007A4A10447A4A127881547848007822
:104B6000401C7749087006E00020724908707549BA
:104B700008707349087055E022E0FFE76848007844
:104B80000D2815D106206B490870654800786A49E0
:104B9000097801EB410202EBC101684A1144684AFD
:104BA0001278885466480078401C6549087006E011
:104BB000002060490870634908706149087031E05D
:104BC000574800780A2825D1554801785A48007876
:104BD00000EB400202EBC000584A1044584A1278D9
:104BE000815400205349087053480078401C5249B2
:104BF00008700020524908700120524908704E4840
:104C0000007813280DDB01204B49087000204C4927
:104C1000087006E00020474908704A490870484972
:104C2000087000BF00BF10BD10B540F225514648C6
:104C300002F0E6FD444802F039FD39490870434866
:104C40000078012869D13A48007805281DD2DFE8AC
:104C500000F0031D384E7F0031480078A5280DD1A3
:104C60002F4800782F490978C1EB0111C1EBC10130
:104C70002D4A505401202E49087006E000202C498E
:104C800008702A490860254908709CE0244800788B
:104C90005A280ED12248007822490978C1EB011127
:104CA000C1EBC101204A114448700220204908701C
:104CB00006E000201E4908701C490860174908706A
:104CC00081E01748007817490978C1EB0111C1EB61
:104CD000C101154A114488701048007810490978BC
:104CE00008440E4908700320114908706BE00C4815
:104CF00000780C490978C1EB0111C1EBC1010A4AE6
:104D00001144C870054800780549097808440349EA
:104D1000087004200649087055E055E0790000202D
:104D2000780000205C000020560500207400002060
:104D3000710000208400002092000020F407002071
:104D400090000020910000200044004070000020EE
:104D5000F8480178F8480078C0EB0010C0EBC000BC
:104D6000F64A1044001DF64A12688154F44800685F
:104D7000401CF3490860F3480078EE49097808447C
:104D8000F0490870EC480078C0EB0010C0EBC000A0
:104D9000EA4908448078401EE9490968884211D1EF
:104DA0000020E9490870E7490870E5490860E248D1
:104DB0000078401CE049087008460078042801DBB0
:104DC0000120087000BF51E1E0480078072833D285
:104DD000DFE800F004336DA7D3F7ED00D548007885
:104DE0006D2815D0D3480078D949097801EB4102E4
:104DF00002EBC101D74A1144D74A12788854D648E9
:104E00000078401CD44908700120D049087013E094
:104E1000C8480078CE49097801EB410202EBC10194
:104E2000CC4A1144CC4A127888540020C7490870F3
:104E3000CA490870C849087017E1BE4800786D2853
:104E400015D0BC480178C248007800EB400202EB64
:104E5000C000C04A1044C04A12788154BE4800784D
:104E6000401CBD4908700220B84908701EE0B148D6
:104E70000178B748007800EB400202EBC000B54A69
:104E80001044B54A12788154B3480078401CB249A6
:104E900008700120AE49097801EB410202EBC10123
:104EA000AC4A114488720420A8490870DDE0A1488A
:104EB00000786D2815D09F480178A548007800EB50
:104EC000400202EBC000A34A1044A34A1278815466
:104ED000A1480078401CA049087003209B49087035
:104EE0001EE0944801789A48007800EB400202EBFB
:104EF000C000984A1044984A12788154022094497C
:104F0000097801EB410202EBC101924A1144887217
:104F100004208E49087090480078401C8E49087023
:104F2000A3E0844800786D281FD1032088490978C0
:104F300001EB410202EBC101864A11448872042050
:104F4000824908707B4800788149097801EB410269
:104F500002EBC1017F4A11447F4A127888547E488F
:104F60000078401C7C49087006E0002077490870F2
:104F70007A4908707849087077E06E4800786D28A3
:104F800017D10520714908706A4801787048007887
:104F900000EB400202EBC0006E4A10446E4A1278E9
:104FA00081546D480078401C6B49087008E02AE085
:104FB00007E0002065490870684908706649087074
:104FC00053E05C4800780D2815D106205F49087031
:104FD000584800785E49097801EB410202EBC101B3
:104FE0005C4A11445C4A127888545B480078401C43
:104FF0005949087006E00020544908705749087064
:105000005549087031E04B4800780A2825D14948B5
:1050100001784F48007800EB400202EBC0004D4A97
:1050200010444D4A1278815400204849087048487D
:105030000078401C4649087000204749087001204C
:10504000464908704248007813280DDB012040498A
:10505000087000204049087006E000203B490870B5
:105060003E4908703C49087000BF00BF10BD10B534
:1050700040F225513A4802F0C3FB394802F016FBD2
:105080002C4908703748007801286DD12E480078E7
:1050900005281DD2DFE800F0031D38697F00254890
:1050A0000078A5280DD12348007823490978C1EB61
:1050B0000111C1EBC101214A50540120224908705D
:1050C00006E00020204908701D4908601D4908704D
:1050D0009CE0184800785A280ED1164800781649E6
:1050E0000978C1EB0111C1EBC101144A11444870A8
:1050F00002201549087006E0002013490870104985
:1051000008601049087081E00A4800780A49097867
:10511000C1EB0111C1EBC101084A11448870094873
:1051200000780449097808440649087003200649B4
:1051300008706BE0780000205C000020560500201D
:1051400074000020790000207100002084000020FD
:1051500092000020F4070020900000209100002021
:10516000003801407000002051E0FE480078FE4900
:105170000978C1EB0111C1EBC101FC4A1144C870AF
:10518000FB480078F74909780844F9490870042079
:10519000F84908703AE0F3480178F3480078C0EB2A
:1051A0000010C0EBC000F14A1044001DF24A126822
:1051B0008154F1480068401CEF490860EC480078D1
:1051C000E84909780844EA490870E7480078C0EBE4
:1051D0000010C0EBC000E54908448078401EE64955
:1051E0000968884211D10020E2490870E04908703E
:1051F000E1490860DC480078401CDB49087008463B
:105200000078042801DB0120087000BF51E1DB4871
:105210000078072833D2DFE800F004336DA7D3F716
:10522000F500D04800786D2815D0CE480078D449D4
:10523000097801EB410202EBC101D24A1144D24A82
:1052400012788854D0480078401CCF49087001205B
:10525000CA49087013E0C3480078C949097801EBCE
:10526000410202EBC101C74A1144C74A127888546F
:105270000020C2490870C5490870C349087017E189
:10528000B84800786D2815D0B6480178BC48007839
:1052900000EB400202EBC000BA4A1044BA4A12784E
:1052A0008154B9480078401CB74908700220B349BE
:1052B00008701EE0AB480178B148007800EB40026E
:1052C00002EBC000AF4A1044AF4A12788154AE4896
:1052D0000078401CAC4908700120A949097801EB0D
:1052E000410202EBC101A74A114488720420A3497C
:1052F0000870DDE09B4800786D2815D0994801784A
:105300009F48007800EB400202EBC0009D4A104429
:105310009D4A127881549C480078401C9A49087034
:105320000320964908701EE08E4801789448007862
:1053300000EB400202EBC000924A1044924A1278FD
:10534000815402208E49097801EB410202EBC10130
:105350008C4A114488720420884908708A48007871
:10536000401C89490870A3E07E4800786D281FD151
:1053700003208349097801EB410202EBC101814A14
:105380001144887204207D490870764800787C4971
:10539000097801EB410202EBC1017A4A11447A4AD1
:1053A0001278885478480078401C7749087006E0E5
:1053B000002072490870754908707349087077E0D9
:1053C000684800786D2815D105206C49087065483B
:1053D00001786B48007800EB400202EBC000694A9C
:1053E0001044694A1278815467480078401C664925
:1053F000087006E00020614908706449087062493D
:10540000087055E022E0FFE7564800780D2815D1D6
:1054100006205A490870534800785949097801EB29
:10542000410202EBC101574A1144574A127888548D
:1054300055480078401C5449087006E000204F4948
:105440000870524908705049087031E045480078AA
:105450000A2825D1434801784948007800EB4002EA
:1054600002EBC000474A1044474A1278815400209A
:105470004249087042480078401C414908700020A9
:10548000414908700120414908703D4800781328BF
:105490000DDB01203A49087000203B49087006E006
:1054A000002036490870394908703749087000BF34
:1054B00000BF10BD2DE9FC4705460E46174698462D
:1054C000DDE90A9A8DF800508DF801608DF80270C0
:1054D0008DF803808DF804908DF805A000240CE071
:1054E00000BF40212A4802F04BF90128F9D11DF8EC
:1054F0000410274802F0D6F8641C062CF0D3BDE84F
:10550000FC877CB51848007850B317480078401ED7
:10551000C0EB0010C0EBC0001449084440791249A8
:105520000978491EC1EB0111C1EBC1010F4A1144B9
:1055300009790D4CCDE900102478641EC4EB0414E5
:10554000C4EBC40415462C44E378074C2478641E4D
:10555000C4EB0414C4EBC4042C44A278024C19E03C
:105560002FE00000780000205C000020560500209D
:1055700079000020710000207400002084000020C9
:1055800092000020F40700209000002091000020ED
:10559000005000402478641EC4EB0414C4EBC4041F
:1055A0002C446178074C2478641EC4EB0414C4EBCB
:1055B000C404285DFFF77EFF02480078401E0149C1
:1055C00008707CBD5C0000200120FE490870487016
:1055D0000020887001200871487100208871012026
:1055E000C87100200872C8700120F749087048701F
:1055F0000020887001200871487100208871012006
:10560000C87100200872C87070472DE9FC5FEF492F
:10561000D1F8800002F0A1FB8046ED4AED4B02F08C
:105620009CFA82460022EC4B02F0F0F9064600227A
:10563000EA4B02F004FB044602F0B0FBE8490870B4
:10564000E249D1F8800002F088FBE14AE14BCDE964
:10565000000102F082FA06460022DF4B02F0D6F982
:1056600004460022DF4B02F0EAFA804602F096FB85
:1056700000F0FF0A4FEAEA700AEB10600012AAEB92
:105680000020D7494870D849D1F8800002F065FB66
:105690008246D64AD64B02F060FA06460022CE4B2E
:1056A00002F0B4F904460022CC4B02F0C8FA80465E
:1056B00002F074FBCA498870CB49D1F8800002F02F
:1056C0004CFB8046C94ACA4B02F047FA0646002204
:1056D000C14B02F09BF904460022C24B02F0AFFA24
:1056E000CDE9000102F05AFB00F0FF0A4FEAEA7030
:1056F0000AEB10600012AAEB0020B949C870002024
:10570000087148718871C8710846002161236D22B3
:10571000CDE9001008210120FDF754FBBDE8FC9FF6
:1057200010B501460022A748007AB24B43F820107A
:10573000A448007A401CA34B18721846007A02282D
:105740001EDB0020187200BF12E0AB4B1B680A3B47
:10575000A84C54F82040A34209DAA64B53F8204045
:10576000A54B1B6828339C4201DA531CDAB2401C5B
:105770000228EADB012A01DBFF2010BD0020FCE744
:105780000020FAE79D48007800287DD000209B4A41
:1057900010709B480078401E00EB400202EBC000F6
:1057A000984A1044807A012804D0022818D003288F
:1057B00079D13DE092480078401E00EB400202EBB8
:1057C000C000904A125C8F4880F8D820002280F8F0
:1057D000D92080F8DA2090F8D800A0F1300162E0FA
:1057E00087480078401E00EB400202EBC000854A6B
:1057F000125C844880F8D82081480078401E00EB75
:10580000400202EBC0007F4A104442787D4880F895
:10581000D920002280F8DA2090F8D9003038794A6F
:1058200092F8D820303A02EB820200EB42013AE0D3
:1058300073480078401E00EB400202EBC000714A42
:10584000125C704880F8D8206D480078401E00EB4C
:10585000400202EBC0006B4A10444278694880F86D
:10586000D92067480078401E00EB400202EBC000E0
:10587000644A10448278634880F8DA2090F8D800AF
:1058800030386422424300E015E05E4890F8D900C9
:10589000303800EB800002EB40025A4890F8DA0002
:1058A0003038111800BF00BF55480078401E544AD8
:1058B000107008467047FF20FCE77CB541488078AF
:1058C00001287DD13F480079012816D13D48007854
:1058D000012804D100203B490870FCF755FC3948E9
:1058E000C078012808D100203649C870012008700E
:1058F00008460079401C0871D9E032480079022836
:105900004DD130480078012808D100202D49087079
:10591000012200214CF25030FCF78EFCFFF732FFE1
:105920000546FF2D00D17CBD2846FFF7F9FE044651
:10593000FF2C33D100202549087000214FF0804012
:1059400001F096FA00203049087000212F4801F03C
:105950008FFA00202449087000212D4801F088FAB0
:1059600018484079401C1749487108464079022878
:1059700004D10420087101200870D4E701201149E6
:10598000087008460079401C08714FF4FA70FBF764
:1059900048FE4FF4FA70FBF744FE88E0C3E709487D
:1059A000007903284CD107480078012807D100204E
:1059B00004490870002211462020FCF73DFC29E034
:1059C00076E00000960000209F000020E00000200C
:1059D0002B8716D9CEF7E53F0000E03F000070406E
:1059E0004E0000200000F03F70010020C503CAA651
:1059F0005CE1D93F6407002088000020910000206E
:105A000092000020F4070020000200200004004063
:105A100000080040A7480078002848D14FF4FA70E9
:105A2000FBF7FFFD4FF4FA70FBF7FBFDFFF7EDFD11
:105A30000120A149087008460079401C087136E031
:105A40009D480079042828D19B48007801281BD163
:105A50009948407905280FDD0020A02161236D229F
:105A6000CDE900100821FDF7ADF9FFF7ADFD4CF2CF
:105A70005030FCF7D5FB56E700208F490870012213
:105A80000021C820FCF7D8FB8A48007878B90220AA
:105A9000894908710120087045E70120864908718D
:105AA0000020887001204871C8710020887100BFF3
:105AB00000BF38E710B5014600228048007A804BCD
:105AC00043F820107D48007A401C7C4B1872184621
:105AD000007A04281EDB0020187200BF12E0794B08
